{
  "_format": "hh-sol-artifact-1",
  "contractName": "Register",
  "sourceName": "contracts/Registration.sol",
  "abi": [
    {
      "inputs": [],
      "name": "activeCount",
      "outputs": [
        {
          "internalType": "uint256",
          "name": "count",
          "type": "uint256"
        }
      ],
      "stateMutability": "view",
      "type": "function"
    },
    {
      "inputs": [
        {
          "internalType": "string",
          "name": "_profilename",
          "type": "string"
        },
        {
          "internalType": "string",
          "name": "_username",
          "type": "string"
        },
        {
          "internalType": "string",
          "name": "_password",
          "type": "string"
        },
        {
          "internalType": "string",
          "name": "_ipfshash",
          "type": "string"
        }
      ],
      "name": "addProfile",
      "outputs": [],
      "stateMutability": "nonpayable",
      "type": "function"
    },
    {
      "inputs": [
        {
          "internalType": "string",
          "name": "tweetText",
          "type": "string"
        },
        {
          "internalType": "string",
          "name": "ipfshash",
          "type": "string"
        },
        {
          "internalType": "string",
          "name": "filetype",
          "type": "string"
        },
        {
          "internalType": "uint256",
          "name": "timestamp",
          "type": "uint256"
        },
        {
          "internalType": "bool",
          "name": "isDeleted",
          "type": "bool"
        }
      ],
      "name": "addTweet",
      "outputs": [],
      "stateMutability": "nonpayable",
      "type": "function"
    },
    {
      "inputs": [],
      "name": "deleteCount",
      "outputs": [
        {
          "internalType": "uint256",
          "name": "count",
          "type": "uint256"
        }
      ],
      "stateMutability": "view",
      "type": "function"
    },
    {
      "inputs": [
        {
          "internalType": "uint256",
          "name": "tweetId",
          "type": "uint256"
        },
        {
          "internalType": "bool",
          "name": "isDeleted",
          "type": "bool"
        }
      ],
      "name": "deleteTweet",
      "outputs": [],
      "stateMutability": "nonpayable",
      "type": "function"
    },
    {
      "inputs": [],
      "name": "getAllProfiles",
      "outputs": [
        {
          "components": [
            {
              "internalType": "string",
              "name": "profilename",
              "type": "string"
            },
            {
              "internalType": "string",
              "name": "username",
              "type": "string"
            },
            {
              "internalType": "string",
              "name": "password",
              "type": "string"
            },
            {
              "internalType": "string",
              "name": "pic",
              "type": "string"
            },
            {
              "internalType": "address",
              "name": "wallet",
              "type": "address"
            }
          ],
          "internalType": "struct Register.Profile[]",
          "name": "",
          "type": "tuple[]"
        }
      ],
      "stateMutability": "view",
      "type": "function"
    },
    {
      "inputs": [],
      "name": "getAllTweets",
      "outputs": [
        {
          "components": [
            {
              "internalType": "uint256",
              "name": "id",
              "type": "uint256"
            },
            {
              "internalType": "string",
              "name": "profilename",
              "type": "string"
            },
            {
              "internalType": "string",
              "name": "username",
              "type": "string"
            },
            {
              "internalType": "string",
              "name": "pic",
              "type": "string"
            },
            {
              "internalType": "address",
              "name": "wallet_address",
              "type": "address"
            },
            {
              "internalType": "string",
              "name": "tweetText",
              "type": "string"
            },
            {
              "internalType": "string",
              "name": "ipfshash",
              "type": "string"
            },
            {
              "internalType": "string",
              "name": "filetype",
              "type": "string"
            },
            {
              "internalType": "uint256",
              "name": "timestamp",
              "type": "uint256"
            },
            {
              "internalType": "bool",
              "name": "isDeleted",
              "type": "bool"
            }
          ],
          "internalType": "struct Register.Tweet[]",
          "name": "",
          "type": "tuple[]"
        }
      ],
      "stateMutability": "view",
      "type": "function"
    },
    {
      "inputs": [],
      "name": "getMyTweets",
      "outputs": [
        {
          "components": [
            {
              "internalType": "uint256",
              "name": "id",
              "type": "uint256"
            },
            {
              "internalType": "string",
              "name": "profilename",
              "type": "string"
            },
            {
              "internalType": "string",
              "name": "username",
              "type": "string"
            },
            {
              "internalType": "string",
              "name": "pic",
              "type": "string"
            },
            {
              "internalType": "address",
              "name": "wallet_address",
              "type": "address"
            },
            {
              "internalType": "string",
              "name": "tweetText",
              "type": "string"
            },
            {
              "internalType": "string",
              "name": "ipfshash",
              "type": "string"
            },
            {
              "internalType": "string",
              "name": "filetype",
              "type": "string"
            },
            {
              "internalType": "uint256",
              "name": "timestamp",
              "type": "uint256"
            },
            {
              "internalType": "bool",
              "name": "isDeleted",
              "type": "bool"
            }
          ],
          "internalType": "struct Register.Tweet[]",
          "name": "",
          "type": "tuple[]"
        }
      ],
      "stateMutability": "view",
      "type": "function"
    },
    {
      "inputs": [],
      "name": "gettingCredentials",
      "outputs": [
        {
          "components": [
            {
              "internalType": "string",
              "name": "profilename",
              "type": "string"
            },
            {
              "internalType": "string",
              "name": "username",
              "type": "string"
            },
            {
              "internalType": "string",
              "name": "password",
              "type": "string"
            },
            {
              "internalType": "string",
              "name": "pic",
              "type": "string"
            },
            {
              "internalType": "address",
              "name": "wallet",
              "type": "address"
            }
          ],
          "internalType": "struct Register.Profile",
          "name": "info",
          "type": "tuple"
        }
      ],
      "stateMutability": "view",
      "type": "function"
    },
    {
      "inputs": [],
      "name": "isRegister",
      "outputs": [
        {
          "internalType": "bool",
          "name": "isregistered",
          "type": "bool"
        }
      ],
      "stateMutability": "view",
      "type": "function"
    }
  ],
  "bytecode": "0x608060405234801561001057600080fd5b50612e67806100206000396000f3fe608060405234801561001057600080fd5b506004361061009e5760003560e01c80639e6132ff116100665780639e6132ff14610137578063aefedbc214610155578063bbaa5efe14610173578063d88068c914610191578063f0312a37146101ad5761009e565b80630b1fe784146100a35780634331ed1f146100c157806353256135146100df5780638525f888146100fd5780639dc04e931461011b575b600080fd5b6100ab6101c9565b6040516100b891906129fb565b60405180910390f35b6100c961072b565b6040516100d69190612a7c565b60405180910390f35b6100e7610772565b6040516100f49190612a1d565b60405180910390f35b610105610de2565b6040516101129190612a3f565b60405180910390f35b61013560048036038101906101309190612557565b610e36565b005b61013f61139f565b60405161014c9190612a7c565b60405180910390f35b61015d6113e6565b60405161016a9190612a1d565b60405180910390f35b61017b611b80565b6040516101889190612a5a565b60405180910390f35b6101ab60048036038101906101a69190612494565b611e75565b005b6101c760048036038101906101c29190612616565b612132565b005b60606000805b60018054905081101561029c573373ffffffffffffffffffffffffffffffffffffffff166001828154811061022d577f4e487b7100000000000000000000000000000000000000000000000000000000600052603260045260246000fd5b906000526020600020906005020160040160009054906101000a900473ffffffffffffffffffffffffffffffffffffffff1673ffffffffffffffffffffffffffffffffffffffff161461028957818061028590612d1c565b9250505b808061029490612d1c565b9150506101cf565b5060008167ffffffffffffffff8111156102df577f4e487b7100000000000000000000000000000000000000000000000000000000600052604160045260246000fd5b60405190808252806020026020018201604052801561031857816020015b6103056122af565b8152602001906001900390816102fd5790505b5090506000805b600180549050811015610721573373ffffffffffffffffffffffffffffffffffffffff166001828154811061037d577f4e487b7100000000000000000000000000000000000000000000000000000000600052603260045260246000fd5b906000526020600020906005020160040160009054906101000a900473ffffffffffffffffffffffffffffffffffffffff1673ffffffffffffffffffffffffffffffffffffffff161461070e5760018181548110610404577f4e487b7100000000000000000000000000000000000000000000000000000000600052603260045260246000fd5b90600052602060002090600502016040518060a001604052908160008201805461042d90612cb9565b80601f016020809104026020016040519081016040528092919081815260200182805461045990612cb9565b80156104a65780601f1061047b576101008083540402835291602001916104a6565b820191906000526020600020905b81548152906001019060200180831161048957829003601f168201915b505050505081526020016001820180546104bf90612cb9565b80601f01602080910402602001604051908101604052809291908181526020018280546104eb90612cb9565b80156105385780601f1061050d57610100808354040283529160200191610538565b820191906000526020600020905b81548152906001019060200180831161051b57829003601f168201915b5050505050815260200160028201805461055190612cb9565b80601f016020809104026020016040519081016040528092919081815260200182805461057d90612cb9565b80156105ca5780601f1061059f576101008083540402835291602001916105ca565b820191906000526020600020905b8154815290600101906020018083116105ad57829003601f168201915b505050505081526020016003820180546105e390612cb9565b80601f016020809104026020016040519081016040528092919081815260200182805461060f90612cb9565b801561065c5780601f106106315761010080835404028352916020019161065c565b820191906000526020600020905b81548152906001019060200180831161063f57829003601f168201915b505050505081526020016004820160009054906101000a900473ffffffffffffffffffffffffffffffffffffffff1673ffffffffffffffffffffffffffffffffffffffff1673ffffffffffffffffffffffffffffffffffffffff16815250508383815181106106f4577f4e487b7100000000000000000000000000000000000000000000000000000000600052603260045260246000fd5b6020026020010181905250818061070a90612d1c565b9250505b808061071990612d1c565b91505061031f565b5081935050505090565b6000600560003373ffffffffffffffffffffffffffffffffffffffff1673ffffffffffffffffffffffffffffffffffffffff16815260200190815260200160002054905090565b6060600080808054905090505b600081111561081b5760001515600060018361079b9190612bd1565b815481106107d2577f4e487b7100000000000000000000000000000000000000000000000000000000600052603260045260246000fd5b90600052602060002090600a020160090160009054906101000a900460ff161515141561080857818061080490612d1c565b9250505b808061081390612c8f565b91505061077f565b5060008167ffffffffffffffff81111561085e577f4e487b7100000000000000000000000000000000000000000000000000000000600052604160045260246000fd5b60405190808252806020026020018201604052801561089757816020015b6108846122f4565b81526020019060019003908161087c5790505b509050600091506000808054905090505b6000811115610dd9576000151560006001836108c49190612bd1565b815481106108fb577f4e487b7100000000000000000000000000000000000000000000000000000000600052603260045260246000fd5b90600052602060002090600a020160090160009054906101000a900460ff1615151415610dc65760006001826109319190612bd1565b81548110610968577f4e487b7100000000000000000000000000000000000000000000000000000000600052603260045260246000fd5b90600052602060002090600a0201604051806101400160405290816000820154815260200160018201805461099c90612cb9565b80601f01602080910402602001604051908101604052809291908181526020018280546109c890612cb9565b8015610a155780601f106109ea57610100808354040283529160200191610a15565b820191906000526020600020905b8154815290600101906020018083116109f857829003601f168201915b50505050508152602001600282018054610a2e90612cb9565b80601f0160208091040260200160405190810160405280929190818152602001828054610a5a90612cb9565b8015610aa75780601f10610a7c57610100808354040283529160200191610aa7565b820191906000526020600020905b815481529060010190602001808311610a8a57829003601f168201915b50505050508152602001600382018054610ac090612cb9565b80601f0160208091040260200160405190810160405280929190818152602001828054610aec90612cb9565b8015610b395780601f10610b0e57610100808354040283529160200191610b39565b820191906000526020600020905b815481529060010190602001808311610b1c57829003601f168201915b505050505081526020016004820160009054906101000a900473ffffffffffffffffffffffffffffffffffffffff1673ffffffffffffffffffffffffffffffffffffffff1673ffffffffffffffffffffffffffffffffffffffff168152602001600582018054610ba890612cb9565b80601f0160208091040260200160405190810160405280929190818152602001828054610bd490612cb9565b8015610c215780601f10610bf657610100808354040283529160200191610c21565b820191906000526020600020905b815481529060010190602001808311610c0457829003601f168201915b50505050508152602001600682018054610c3a90612cb9565b80601f0160208091040260200160405190810160405280929190818152602001828054610c6690612cb9565b8015610cb35780601f10610c8857610100808354040283529160200191610cb3565b820191906000526020600020905b815481529060010190602001808311610c9657829003601f168201915b50505050508152602001600782018054610ccc90612cb9565b80601f0160208091040260200160405190810160405280929190818152602001828054610cf890612cb9565b8015610d455780601f10610d1a57610100808354040283529160200191610d45565b820191906000526020600020905b815481529060010190602001808311610d2857829003601f168201915b50505050508152602001600882015481526020016009820160009054906101000a900460ff161515151581525050828481518110610dac577f4e487b7100000000000000000000000000000000000000000000000000000000600052603260045260246000fd5b60200260200101819052508280610dc290612d1c565b9350505b8080610dd190612c8f565b9150506108a8565b50809250505090565b6000600460003373ffffffffffffffffffffffffffffffffffffffff1673ffffffffffffffffffffffffffffffffffffffff16815260200190815260200160002060009054906101000a900460ff16905090565b6000808054905090506000600360003373ffffffffffffffffffffffffffffffffffffffff1673ffffffffffffffffffffffffffffffffffffffff1681526020019081526020016000206040518060a0016040529081600082018054610e9b90612cb9565b80601f0160208091040260200160405190810160405280929190818152602001828054610ec790612cb9565b8015610f145780601f10610ee957610100808354040283529160200191610f14565b820191906000526020600020905b815481529060010190602001808311610ef757829003601f168201915b50505050508152602001600182018054610f2d90612cb9565b80601f0160208091040260200160405190810160405280929190818152602001828054610f5990612cb9565b8015610fa65780601f10610f7b57610100808354040283529160200191610fa6565b820191906000526020600020905b815481529060010190602001808311610f8957829003601f168201915b50505050508152602001600282018054610fbf90612cb9565b80601f0160208091040260200160405190810160405280929190818152602001828054610feb90612cb9565b80156110385780601f1061100d57610100808354040283529160200191611038565b820191906000526020600020905b81548152906001019060200180831161101b57829003601f168201915b5050505050815260200160038201805461105190612cb9565b80601f016020809104026020016040519081016040528092919081815260200182805461107d90612cb9565b80156110ca5780601f1061109f576101008083540402835291602001916110ca565b820191906000526020600020905b8154815290600101906020018083116110ad57829003601f168201915b505050505081526020016004820160009054906101000a900473ffffffffffffffffffffffffffffffffffffffff1673ffffffffffffffffffffffffffffffffffffffff1673ffffffffffffffffffffffffffffffffffffffff1681525050905060006040518061014001604052808481526020018360000151815260200183602001518152602001836060015181526020013373ffffffffffffffffffffffffffffffffffffffff16815260200189815260200188815260200187815260200186815260200185151581525090806001815401808255809150506001900390600052602060002090600a02016000909190919091506000820151816000015560208201518160010190805190602001906111e692919061235f565b50604082015181600201908051906020019061120392919061235f565b50606082015181600301908051906020019061122092919061235f565b5060808201518160040160006101000a81548173ffffffffffffffffffffffffffffffffffffffff021916908373ffffffffffffffffffffffffffffffffffffffff16021790555060a082015181600501908051906020019061128492919061235f565b5060c08201518160060190805190602001906112a192919061235f565b5060e08201518160070190805190602001906112be92919061235f565b5061010082015181600801556101208201518160090160006101000a81548160ff0219169083151502179055505050336002600084815260200190815260200160002060006101000a81548173ffffffffffffffffffffffffffffffffffffffff021916908373ffffffffffffffffffffffffffffffffffffffff1602179055506001600560003373ffffffffffffffffffffffffffffffffffffffff1673ffffffffffffffffffffffffffffffffffffffff168152602001908152602001600020600082825461138f9190612b7b565b9250508190555050505050505050565b6000600660003373ffffffffffffffffffffffffffffffffffffffff1673ffffffffffffffffffffffffffffffffffffffff16815260200190815260200160002054905090565b60606000808054905067ffffffffffffffff81111561142e577f4e487b7100000000000000000000000000000000000000000000000000000000600052604160045260246000fd5b60405190808252806020026020018201604052801561146757816020015b6114546122f4565b81526020019060019003908161144c5790505b509050600080808054905090505b6000811115611a54576000151560006001836114919190612bd1565b815481106114c8577f4e487b7100000000000000000000000000000000000000000000000000000000600052603260045260246000fd5b90600052602060002090600a020160090160009054906101000a900460ff16151514801561159857503373ffffffffffffffffffffffffffffffffffffffff1660006001836115179190612bd1565b8154811061154e577f4e487b7100000000000000000000000000000000000000000000000000000000600052603260045260246000fd5b90600052602060002090600a020160040160009054906101000a900473ffffffffffffffffffffffffffffffffffffffff1673ffffffffffffffffffffffffffffffffffffffff16145b15611a415760006001826115ac9190612bd1565b815481106115e3577f4e487b7100000000000000000000000000000000000000000000000000000000600052603260045260246000fd5b90600052602060002090600a0201604051806101400160405290816000820154815260200160018201805461161790612cb9565b80601f016020809104026020016040519081016040528092919081815260200182805461164390612cb9565b80156116905780601f1061166557610100808354040283529160200191611690565b820191906000526020600020905b81548152906001019060200180831161167357829003601f168201915b505050505081526020016002820180546116a990612cb9565b80601f01602080910402602001604051908101604052809291908181526020018280546116d590612cb9565b80156117225780601f106116f757610100808354040283529160200191611722565b820191906000526020600020905b81548152906001019060200180831161170557829003601f168201915b5050505050815260200160038201805461173b90612cb9565b80601f016020809104026020016040519081016040528092919081815260200182805461176790612cb9565b80156117b45780601f10611789576101008083540402835291602001916117b4565b820191906000526020600020905b81548152906001019060200180831161179757829003601f168201915b505050505081526020016004820160009054906101000a900473ffffffffffffffffffffffffffffffffffffffff1673ffffffffffffffffffffffffffffffffffffffff1673ffffffffffffffffffffffffffffffffffffffff16815260200160058201805461182390612cb9565b80601f016020809104026020016040519081016040528092919081815260200182805461184f90612cb9565b801561189c5780601f106118715761010080835404028352916020019161189c565b820191906000526020600020905b81548152906001019060200180831161187f57829003601f168201915b505050505081526020016006820180546118b590612cb9565b80601f01602080910402602001604051908101604052809291908181526020018280546118e190612cb9565b801561192e5780601f106119035761010080835404028352916020019161192e565b820191906000526020600020905b81548152906001019060200180831161191157829003601f168201915b5050505050815260200160078201805461194790612cb9565b80601f016020809104026020016040519081016040528092919081815260200182805461197390612cb9565b80156119c05780601f10611995576101008083540402835291602001916119c0565b820191906000526020600020905b8154815290600101906020018083116119a357829003601f168201915b50505050508152602001600882015481526020016009820160009054906101000a900460ff161515151581525050838381518110611a27577f4e487b7100000000000000000000000000000000000000000000000000000000600052603260045260246000fd5b60200260200101819052508180611a3d90612d1c565b9250505b8080611a4c90612c8f565b915050611475565b5060008167ffffffffffffffff811115611a97577f4e487b7100000000000000000000000000000000000000000000000000000000600052604160045260246000fd5b604051908082528060200260200182016040528015611ad057816020015b611abd6122f4565b815260200190600190039081611ab55790505b50905060005b82811015611b7657838181518110611b17577f4e487b7100000000000000000000000000000000000000000000000000000000600052603260045260246000fd5b6020026020010151828281518110611b58577f4e487b7100000000000000000000000000000000000000000000000000000000600052603260045260246000fd5b60200260200101819052508080611b6e90612d1c565b915050611ad6565b5080935050505090565b611b886122af565b600360003373ffffffffffffffffffffffffffffffffffffffff1673ffffffffffffffffffffffffffffffffffffffff1681526020019081526020016000206040518060a0016040529081600082018054611be290612cb9565b80601f0160208091040260200160405190810160405280929190818152602001828054611c0e90612cb9565b8015611c5b5780601f10611c3057610100808354040283529160200191611c5b565b820191906000526020600020905b815481529060010190602001808311611c3e57829003601f168201915b50505050508152602001600182018054611c7490612cb9565b80601f0160208091040260200160405190810160405280929190818152602001828054611ca090612cb9565b8015611ced5780601f10611cc257610100808354040283529160200191611ced565b820191906000526020600020905b815481529060010190602001808311611cd057829003601f168201915b50505050508152602001600282018054611d0690612cb9565b80601f0160208091040260200160405190810160405280929190818152602001828054611d3290612cb9565b8015611d7f5780601f10611d5457610100808354040283529160200191611d7f565b820191906000526020600020905b815481529060010190602001808311611d6257829003601f168201915b50505050508152602001600382018054611d9890612cb9565b80601f0160208091040260200160405190810160405280929190818152602001828054611dc490612cb9565b8015611e115780601f10611de657610100808354040283529160200191611e11565b820191906000526020600020905b815481529060010190602001808311611df457829003601f168201915b505050505081526020016004820160009054906101000a900473ffffffffffffffffffffffffffffffffffffffff1673ffffffffffffffffffffffffffffffffffffffff1673ffffffffffffffffffffffffffffffffffffffff1681525050905090565b60016040518060a001604052808681526020018581526020018481526020018381526020013373ffffffffffffffffffffffffffffffffffffffff1681525090806001815401808255809150506001900390600052602060002090600502016000909190919091506000820151816000019080519060200190611ef992919061235f565b506020820151816001019080519060200190611f1692919061235f565b506040820151816002019080519060200190611f3392919061235f565b506060820151816003019080519060200190611f5092919061235f565b5060808201518160040160006101000a81548173ffffffffffffffffffffffffffffffffffffffff021916908373ffffffffffffffffffffffffffffffffffffffff16021790555050506040518060a001604052808581526020018481526020018381526020018281526020013373ffffffffffffffffffffffffffffffffffffffff16815250600360003373ffffffffffffffffffffffffffffffffffffffff1673ffffffffffffffffffffffffffffffffffffffff168152602001908152602001600020600082015181600001908051906020019061203292919061235f565b50602082015181600101908051906020019061204f92919061235f565b50604082015181600201908051906020019061206c92919061235f565b50606082015181600301908051906020019061208992919061235f565b5060808201518160040160006101000a81548173ffffffffffffffffffffffffffffffffffffffff021916908373ffffffffffffffffffffffffffffffffffffffff1602179055509050506001600460003373ffffffffffffffffffffffffffffffffffffffff1673ffffffffffffffffffffffffffffffffffffffff16815260200190815260200160002060006101000a81548160ff02191690831515021790555050505050565b3373ffffffffffffffffffffffffffffffffffffffff166002600084815260200190815260200160002060009054906101000a900473ffffffffffffffffffffffffffffffffffffffff1673ffffffffffffffffffffffffffffffffffffffff1614156122ab5780600083815481106121d4577f4e487b7100000000000000000000000000000000000000000000000000000000600052603260045260246000fd5b90600052602060002090600a020160090160006101000a81548160ff0219169083151502179055506001600560003373ffffffffffffffffffffffffffffffffffffffff1673ffffffffffffffffffffffffffffffffffffffff168152602001908152602001600020600082825461224c9190612bd1565b925050819055506001600660003373ffffffffffffffffffffffffffffffffffffffff1673ffffffffffffffffffffffffffffffffffffffff16815260200190815260200160002060008282546122a39190612b7b565b925050819055505b5050565b6040518060a0016040528060608152602001606081526020016060815260200160608152602001600073ffffffffffffffffffffffffffffffffffffffff1681525090565b60405180610140016040528060008152602001606081526020016060815260200160608152602001600073ffffffffffffffffffffffffffffffffffffffff168152602001606081526020016060815260200160608152602001600081526020016000151581525090565b82805461236b90612cb9565b90600052602060002090601f01602090048101928261238d57600085556123d4565b82601f106123a657805160ff19168380011785556123d4565b828001600101855582156123d4579182015b828111156123d35782518255916020019190600101906123b8565b5b5090506123e191906123e5565b5090565b5b808211156123fe5760008160009055506001016123e6565b5090565b600061241561241084612abc565b612a97565b90508281526020810184848401111561242d57600080fd5b612438848285612c4d565b509392505050565b60008135905061244f81612e03565b92915050565b600082601f83011261246657600080fd5b8135612476848260208601612402565b91505092915050565b60008135905061248e81612e1a565b92915050565b600080600080608085870312156124aa57600080fd5b600085013567ffffffffffffffff8111156124c457600080fd5b6124d087828801612455565b945050602085013567ffffffffffffffff8111156124ed57600080fd5b6124f987828801612455565b935050604085013567ffffffffffffffff81111561251657600080fd5b61252287828801612455565b925050606085013567ffffffffffffffff81111561253f57600080fd5b61254b87828801612455565b91505092959194509250565b600080600080600060a0868803121561256f57600080fd5b600086013567ffffffffffffffff81111561258957600080fd5b61259588828901612455565b955050602086013567ffffffffffffffff8111156125b257600080fd5b6125be88828901612455565b945050604086013567ffffffffffffffff8111156125db57600080fd5b6125e788828901612455565b93505060606125f88882890161247f565b925050608061260988828901612440565b9150509295509295909350565b6000806040838503121561262957600080fd5b60006126378582860161247f565b925050602061264885828601612440565b9150509250929050565b600061265e83836127ca565b905092915050565b600061267283836128e0565b905092915050565b61268381612c05565b82525050565b600061269482612b0d565b61269e8185612b48565b9350836020820285016126b085612aed565b8060005b858110156126ec57848403895281516126cd8582612652565b94506126d883612b2e565b925060208a019950506001810190506126b4565b50829750879550505050505092915050565b600061270982612b18565b6127138185612b59565b93508360208202850161272585612afd565b8060005b8581101561276157848403895281516127428582612666565b945061274d83612b3b565b925060208a01995050600181019050612729565b50829750879550505050505092915050565b61277c81612c17565b82525050565b61278b81612c17565b82525050565b600061279c82612b23565b6127a68185612b6a565b93506127b6818560208601612c5c565b6127bf81612df2565b840191505092915050565b600060a08301600083015184820360008601526127e78282612791565b915050602083015184820360208601526128018282612791565b9150506040830151848203604086015261281b8282612791565b915050606083015184820360608601526128358282612791565b915050608083015161284a608086018261267a565b508091505092915050565b600060a08301600083015184820360008601526128728282612791565b9150506020830151848203602086015261288c8282612791565b915050604083015184820360408601526128a68282612791565b915050606083015184820360608601526128c08282612791565b91505060808301516128d5608086018261267a565b508091505092915050565b6000610140830160008301516128f960008601826129dd565b50602083015184820360208601526129118282612791565b9150506040830151848203604086015261292b8282612791565b915050606083015184820360608601526129458282612791565b915050608083015161295a608086018261267a565b5060a083015184820360a08601526129728282612791565b91505060c083015184820360c086015261298c8282612791565b91505060e083015184820360e08601526129a68282612791565b9150506101008301516129bd6101008601826129dd565b506101208301516129d2610120860182612773565b508091505092915050565b6129e681612c43565b82525050565b6129f581612c43565b82525050565b60006020820190508181036000830152612a158184612689565b905092915050565b60006020820190508181036000830152612a3781846126fe565b905092915050565b6000602082019050612a546000830184612782565b92915050565b60006020820190508181036000830152612a748184612855565b905092915050565b6000602082019050612a9160008301846129ec565b92915050565b6000612aa1612ab2565b9050612aad8282612ceb565b919050565b6000604051905090565b600067ffffffffffffffff821115612ad757612ad6612dc3565b5b612ae082612df2565b9050602081019050919050565b6000819050602082019050919050565b6000819050602082019050919050565b600081519050919050565b600081519050919050565b600081519050919050565b6000602082019050919050565b6000602082019050919050565b600082825260208201905092915050565b600082825260208201905092915050565b600082825260208201905092915050565b6000612b8682612c43565b9150612b9183612c43565b9250827fffffffffffffffffffffffffffffffffffffffffffffffffffffffffffffffff03821115612bc657612bc5612d65565b5b828201905092915050565b6000612bdc82612c43565b9150612be783612c43565b925082821015612bfa57612bf9612d65565b5b828203905092915050565b6000612c1082612c23565b9050919050565b60008115159050919050565b600073ffffffffffffffffffffffffffffffffffffffff82169050919050565b6000819050919050565b82818337600083830152505050565b60005b83811015612c7a578082015181840152602081019050612c5f565b83811115612c89576000848401525b50505050565b6000612c9a82612c43565b91506000821415612cae57612cad612d65565b5b600182039050919050565b60006002820490506001821680612cd157607f821691505b60208210811415612ce557612ce4612d94565b5b50919050565b612cf482612df2565b810181811067ffffffffffffffff82111715612d1357612d12612dc3565b5b80604052505050565b6000612d2782612c43565b91507fffffffffffffffffffffffffffffffffffffffffffffffffffffffffffffffff821415612d5a57612d59612d65565b5b600182019050919050565b7f4e487b7100000000000000000000000000000000000000000000000000000000600052601160045260246000fd5b7f4e487b7100000000000000000000000000000000000000000000000000000000600052602260045260246000fd5b7f4e487b7100000000000000000000000000000000000000000000000000000000600052604160045260246000fd5b6000601f19601f8301169050919050565b612e0c81612c17565b8114612e1757600080fd5b50565b612e2381612c43565b8114612e2e57600080fd5b5056fea2646970667358221220c74ec1b0ae64aebf72519e867fd8b8a27b222b949baf427306ff5b8fecdd370764736f6c63430008040033",
  "linkReferences": {},
  "deployedLinkReferences": {}
}